:100000000C9434000C943E000C943E000C943E0082
:100010000C943E000C943E000C943E000C943E0068
:100020000C943E000C943E000C943E000C943E0058
:100030000C943E000C943E000C943E000C943E0048
:100040000C943E000C943E000C943E000C943E0038
:100050000C943E000C943E000C943E000C943E0028
:100060000C943E000C943E0011241FBECFEFD8E04C
:10007000DEBFCDBF0E946E000C94F1000C94000016
:10008000DC01CB01880F991FAA1FBB1F880F991F86
:10009000AA1FBB1F9C01AD01220F331F441F551F18
:1000A000220F331F441F551F60E074E284EF90E07D
:1000B0000E94CF00215031093093C5002093C40025
:1000C00088E08093C10086E08093C20008959091FB
:1000D000C00095FFFCCF8093C60008958AB183705D
:1000E0008AB98BB18C6F8BB960E072EC81E090E0E3
:1000F0000E9440004A990CC085E50E9467002FEFDE
:1001000083EC99E0215080409040E1F700C000006E
:100110004B990CC084E40E9467002FEF83EC99E0B8
:10012000215080409040E1F700C000004C990CC085
:100130008CE40E9467002FEF83EC99E0215080400F
:100140009040E1F700C000004D990CC082E50E948C
:1001500067002FEF83EC99E0215080409040E1F759
:1001600000C000004E990CC081E40E9467002FEF90
:1001700083EC99E0215080409040E1F700C00000FE
:100180004F99B8CF82E40E9467002FEF83EC99E08B
:10019000215080409040E1F700C00000ABCFA1E2C9
:1001A0001A2EAA1BBB1BFD010DC0AA1FBB1FEE1FF1
:1001B000FF1FA217B307E407F50720F0A21BB30B3C
:1001C000E40BF50B661F771F881F991F1A9469F7B8
:1001D00060957095809590959B01AC01BD01CF0114
:0601E0000895F894FFCF22
:00000001FF
