S01900004544325F4C616230365F436F6E74726F6C2E737265633C
S11300000C9434000C943E000C943E000C943E007E
S11300100C943E000C943E000C943E000C943E0064
S11300200C943E000C943E000C943E000C943E0054
S11300300C943E000C943E000C943E000C943E0044
S11300400C943E000C943E000C943E000C943E0034
S11300500C943E000C943E000C943E000C943E0024
S11300600C943E000C943E0011241FBECFEFD8E048
S1130070DEBFCDBF0E946F000C94FE000C94000004
S1130080E0ECF0E0208122602083DC01CB01880FCA
S1130090991FAA1FBB1F880F991FAA1FBB1F9C0172
S11300A0AD01220F331F441F551F60E074E284EF3B
S11300B090E00E94DC00215031093093C500209368
S11300C0C40088E08093C10086E08093C200089554
S11300D09091C00095FFFCCF8093C60008958AB12B
S11300E083708AB98BB18C6F8BB960E072EC81E05C
S11300F090E00E9440004A990EC085E50E94680085
S11301004A9BFECF2FEF82E597E02150804090403C
S1130110E1F700C000004B990EC084E40E9468001F
S11301204B9BFECF2FEF82E597E02150804090401B
S1130130E1F700C000004C990EC08CE40E946800F6
S11301404C9BFECF2FEF82E597E0215080409040FA
S1130150E1F700C000004D990EC082E50E946800DE
S11301604D9BFECF2FEF82E597E0215080409040D9
S1130170E1F700C000004E990EC081E40E946800BF
S11301804E9BFECF2FEF82E597E0215080409040B8
S1130190E1F700C000004F99AECF82E40E946800EE
S11301A04F9BFECF2FEF82E597E021508040904097
S11301B0E1F700C000009FCFA1E21A2EAA1BBB1BCF
S11301C0FD010DC0AA1FBB1FEE1FFF1FA217B3071F
S11301D0E407F50720F0A21BB30BE40BF50B661F35
S11301E0771F881F991F1A9469F7609570958095F9
S11301F090959B01AC01BD01CF010895F894FFCF08
S9030000FC
